:020000040000FA
:1000000000000120992E0000C92E0000CB2E000018
:1000100000000000000000000000000000000000E0
:10002000000000000000000000000000A94D0000DA
:100030000000000000000000EF4D0000194E00001D
:10004000D92E0000D92E0000D92E0000D92E000094
:10005000D92E0000D92E0000D92E0000D92E000084
:10006000D92E0000D92E0000D92E0000D92E000074
:10007000D92E0000D92E0000D92E0000D92E000064
:10008000D92E0000D92E0000D92E0000D92E000054
:10009000D92E0000D92E0000D92E0000D92E000044
:1000A000D92E0000D92E0000D92E0000D92E000034
:1000B000D92E0000D92E0000000000000000000032
:1000C000D92E0000D92E0000D92E0000D92E000014
:1000D000D92E0000D92E0000154B002B08BF134B62
:1000E0009D46A3F5803A00218B460F461348144ADB
:1000F000121A03F087F90F4B002B00D098470E4BD4
:10010000002B00D098470020002104000D000D486E
:10011000002802D00C48AFF3008005F033FD20002A
:10012000290000F013F803F0AEF800BF000008004B
:10013000000001200000000000000000E005002099
:10014000C00F002000000000000000002DE9F04377
:100150004FF00C08ADF6944D0021424606A824ADA0
:100160000DF1040903F04EF90695CDF81C9004F04A
:1001700087F902F0F5FF064610B13C48432159E0EB
:100180004FF48073012002A92A46029302F010FF67
:10019000029C89F80060C4F58073002B029305DA95
:1001A00032484B213246134604F06EFA022002A96F
:1001B00008FB045202F0FCFE074610B12B484D210B
:1001C000F0E7029B89F801401C44C4F58073002BC2
:1001D000029302DA2548522109E008FB0452032069
:1001E00002A902F0E5FE054618B1204854213A461E
:1001F000D9E7029B8DF821401C44082304200DEB15
:10020000030109AA8DF82040029302F00FFF10B1FC
:100210001648612117E000F06DF910B909A800F047
:100220005DF904F05FFE124804F094FF054618B132
:100230000E4872210022B6E70D4804F099FF0446EB
:1002400018B10A4874212A46ADE703F0C1F906A89F
:1002500003A903F00DFB18B1044878212246A2E758
:10026000039B1889059B184403F008F8EC5B000019
:10027000D800002008B507484FF0FF3104F038FBE4
:1002800038B1092805D0002203486C21134604F038
:10029000FBF908BDE0050020FC5B000008B506483E
:1002A00004F0DEFA38B1092805D000220348752190
:1002B000134604F0E9F908BDE0050020FC5B0000EE
:1002C00010B50446FFF7D6FF6468FFF7E7FF204646
:1002D00010BD10B50446FFF7CDFF204600F098FB97
:1002E0000446FFF7DBFF204610BD38B505460C4637
:1002F000FFF7C0FF2146284600F072FB0446FFF7D7
:10030000CDFF204638BD38B505460C46FFF7B2FF95
:1003100001F062FB28B12146284600F037FB044675
:1003200000E00D24FFF7BAFF204638BD10B50446A3
:10033000FFF7A0FF01F050FB28B12046002101F09B
:100340003DFC044600E00D24FFF7A8FF204610BD49
:1003500038B505460C46FFF78DFF01F03DFB28B18F
:100360002146284601F0E4FB044600E00D24FFF797
:1003700095FF204638BD10B50446FFF77BFF01F01E
:100380002BFB20B1204601F0C2FB044600E00D2407
:10039000FFF784FF204610BD38B505460C46FFF731
:1003A00069FF2146286800F0DFFE0446FFF776FF6C
:1003B000204638BD38B505460C46FFF75BFF2146A1
:1003C000284600F023FC0446FFF768FF204638BDAE
:1003D00070B506460D461446FFF74CFF01F0FCFAD7
:1003E00030B122463046294601F026FF044600E09F
:1003F0000D24FFF753FF204670BDF8B507460E46A3
:1004000015461C46FFF736FF234631462A46384636
:1004100000F00BFC0446FFF741FF2046F8BD10B585
:10042000044638B1FFF726FF204600F021FC0446C1
:10043000FFF734FF204610BD73B506460C4615463F
:10044000FFF718FF01F0C8FA48B1224601A831466B
:1004500000F06CFB044618B9019B2B6000E00D24F2
:10046000FFF71CFF0CB100232B60204602B070BDCB
:1004700010B50446FFF7FEFE0CB1236833B9002225
:10048000064840F22D21134604F0FEF85C68FFF7A1
:1004900005FF2046BDE8104000F0E4BCFC5B000016
:1004A000F8B504460F4616461D46FFF7E3FE0CB1AD
:1004B000206830B90022084840F21321134604F0A6
:1004C000E3F8394632462B4600F0C8FE0446FFF7F3
:1004D000E5FE2046F8BD00BFFC5B000010B50446F9
:1004E000FFF7C8FE204601F0ABFD0446FFF7D6FE3D
:1004F000204610BD70B500F027FA00F013FA31481D
:1005000004F0A3F9002858D12F4D304C286804F08E
:1005100011F9A0680C26704304F000F9286008B9AE
:10052000052070BD2A4D286804F004F923681820BE
:10053000584304F0F3F828600028F1D0254D2868CE
:1005400004F0F8F86068704304F0E8F828600028C8
:10055000E6D0214D286804F0EDF8236924205843A3
:1005600004F0DCF828600028DAD01C4D286804F07C
:10057000E1F86069400104F0D1F828600028CFD08C
:10058000174D286804F0D6F8E068C00004F0C6F8FB
:1005900028600028C4D004F077FF124804F092FFCE
:1005A0001149104A114804F079FF01F079F9044625
:1005B00028B90F4804F0CAFF01E00A2070BD2046A8
:1005C00070BD00BFE0050020340B0020800B002030
:1005D0003C0B00207C0B0020B80A0020380B0020C8
:1005E000780B0020EC050020400B0020035C00008D
:1005F000085C000010B50446A16959B10B684A684F
:100600000BB15A6000E0E2614A680348136004F0ED
:10061000F3F8F1E710BD00BFF80A002010B504465A
:1006200038B1FFF7E7FF21460248BDE8104004F06B
:10063000E3B810BD980A002010B5084804F0C8F8C7
:10064000044640B12422002102F0DCFE23460022B1
:1006500043F8182FE361204610BD00BF980A002020
:1006600010B5054804F0B4F8044618B10021202262
:1006700002F0C8FE204610BDF80A002008B5FFF7BA
:10068000EFFF0246B8B90D4B5B685B681A686AB148
:1006900093694BB11046FFF7ADFFFFF7E1FF02464C
:1006A00048B907483F2103E05368EEE70448E621D4
:1006B000134603F0E9FF104608BD00BFE800002024
:1006C000485C000083690BB90B6007E0DB690B60D5
:1006D000C3695B681968088BCB6903441360704772
:1006E000094A13684BB19968814204D11968586866
:1006F00021B1486003E01B68F4E7704750605A6816
:1007000018461160FFF78ABFE8000020F8B5274DB2
:100710002C6807460E4624B1A368B34242D0246831
:10072000F9E7FFF789FF0446D8B96B685B6818687A
:1007300010B91F48802110E0036842680BB15A606D
:1007400001E01A494A6042681360FFF767FFFFF74C
:1007500073FF044628B9164888212246234603F031
:1007600093FF00212422204602F04CFE314604F182
:10077000080000F006FD064670B9A06804F12001EB
:1007800000F0D0FC064638B92B68236003B9074B4C
:100790005C602C60656005E02046FFF73FFF0023AA
:1007A0003B6001E03C6000263046F8BDE8000020D8
:1007B000485C0000074B10B51C6820464CB1FFF7A1
:1007C00019FF04F10800A16800F0DBFC08B92468F7
:1007D000F3E710BDE800002032B100230B60C369CD
:1007E0004B601960C161704783690B600BB1596040
:1007F00000E0C16140F8181F486070472DE9F043E0
:10080000036A89B0064688461746002B00F08280AE
:1008100001A902AAFFF756FF029D7DB1019B9845F1
:1008200004D2B369D3F81490DD690BE0A84505D272
:10083000F3695B681C68D4F8089004E0B368356A13
:10084000D3F810900024019B9D4219D834B10022A6
:10085000334840F2A911134603F016FFFFF70EFFCD
:1008600049460446083002F001F80246002854D1F7
:10087000238BED1AE56130462146FFF7ADFF00E01E
:100880001CB1E569D4F814900AE003A8494601F0C8
:10089000EDFF002841D1BDF81C30DDF81890ED1AAD
:1008A000454531D8A04654BBFFF7E8FE0DF10C0CCE
:1008B000804600F1080EBCE80F00AEE80F00DCF83F
:1008C0000030CEF80030B369C8F81C507BB1F36932
:1008D0005A681268926852B14A4508D1C8F8004077
:1008E000C8F80430C3F80080C6F81C8007E0304622
:1008F000FFF780FE304641460022FFF76DFF5FB1F3
:10090000C7F80080002008E0002C9CD063685B687A
:100910001C6898E7062000E0384609B0BDE8F0837F
:10092000485C000008B5074A106850B10368416888
:100930000BB1596000E0516042681360FFF76EFE32
:10094000F1E708BDE80000200F4B1A680AB96422DD
:100950001A605A6812B90C4A642151609A6812B937
:10096000094A042191601A6912B9074A04211161E8
:100970005A6912B9044A40215161DB6813B9024B2C
:100980000422DA60704700BF800B002073B50E466A
:1009900001A901F0B1F80446C8B9019B586800F0FC
:1009A00061FAB0B10D4803F013FF054698B1214636
:1009B000082202F027FD2846019B40F8043B1A7DDF
:1009C00001321A752146042202F01CFD35602046D2
:1009D00002E0042000E0052002B070BDBC0A002047
:1009E00070B5044640680E4610B923681D6903E0DF
:1009F000C56800F0FBFB50B9656015B9356006208D
:100A000070BD2B7D043401332B750020346070BD24
:100A100010B5044608B9002010BD406820B9206810
:100A200000F0E4FB60B904E000F0E0FB0028F6D041
:100A300010BD0448214603F0DFFE0028EBD00A2059
:100A400010BD00BFBC0A00202DE9F04188B005466A
:100A500001A80E461746984600F02CFB04460028D5
:100A600054D107F114000DF1030102AA00F076FE43
:100A7000044600284AD103A8FF21142202F0C2FC38
:100A8000264B0393B8F1000F01D0254A00E0254A18
:100A90001368591C116004930023059315B94FF096
:100AA000FF3300E06B68069303A831468DF81D7094
:100AB00001F0B4FF03A831469DF80320029B00F02B
:100AC00017FB044610BB019C049B636002999DF8D0
:100AD000030000F055F90199A06001230B752DB1B9
:100AE000284600F0CBFC044680B907E0049B2BB1FC
:100AF0000D4879212A462B4603F0C6FD019800F0E7
:100B00000DFA0E9B019A1A60002003E0019800F094
:100B100071FA204608B0BDE8F08100BFC08B5F923B
:100B2000980C0020A40C0020555C00002DE9F04139
:100B3000074690078AB0884616465ED012F00C032E
:100B400003D0910759D50C2B57D02F4803F040FE06
:100B50000546002853D00C22002102F053FC05A8C2
:100B6000414600F08BFF05A804A903AA00F08CFF02
:100B7000062804460DD1059B022B38D1B20736D585
:100B80000398002833D09DF8202000950799002372
:100B900010E060BB049B586800F064F930BB330779
:100BA0000DD5404600F0B3FF9DF82020039807992B
:100BB00000952346FFF748FF0446C0B901E0049BB7
:100BC0002B6006F0040303F0FF0233B12868291DEF
:100BD00000F0CAFA044650B900E06A602A68137D42
:100BE0000133137500202E723D6009E0042406488D
:100BF000294603F001FE204602E0042000E0052023
:100C00000AB0BDE8F08100BFDC0A002037B5044619
:100C10000D46006801A900F0A7FA20B9019B9D428A
:100C200094BF6560032003B030BDF0B585B00546C4
:100C30000F4616461C4600F0CFFE90B12B7ADB071C
:100C400011D503AB009395E803003A46334600F014
:100C5000C9FC58B96B68039A13446B602CB12260CD
:100C600004E00D2002E00C2000E0204605B0F0BDBD
:100C700010B50446006800F0B9FA38B904482146B6
:100C800003F0BAFD00280CBF00200A2010BD00BFF1
:100C9000DC0A0020F8B50F4D2D7885421C4605D89A
:100CA00000220D483121134603F0EEFC0B4D2E6857
:100CB000000135180C446F68BC4209D83458E87BF1
:100CC000214402F05FFA002814BF02200020F8BD82
:100CD0000320F8BD300B0020615C0000500B0020A9
:100CE000F8B5114C247884421D4605D800220F48DF
:100CF0005721134603F0C8FC0D4C26680001341838
:100D00000D446768BD420AD8A768B94207D3365870
:100D1000E07B314402F054FA18B9A560F8BD032015
:100D2000F8BD0220F8BD00BF300B0020615C000060
:100D3000500B00202DE9F843089C80460E46914652
:100D40001F46BCB1B4F5807F254628BF4FF480759F
:100D500040463146094A2B46FFF79CFF58B94846A2
:100D60003946064A2B46FFF7BBFF20B92E442F44D5
:100D7000641BE6E72046BDE8F88300BF980B00201F
:100D8000B1F1807F08B505D300220448A3211346A2
:100D900003F07AFC41EA006008BD00BF615C00001E
:100DA000030E20F07F400B70106070472DE9F0417A
:100DB000124F3B6804011D1986B006468846E87B41
:100DC00019596A6802F01AFAA0B9A860694628465B
:100DD00001F020FCB8F1000F05D03B681C44FF2354
:100DE000A381172300E01823304600216A46FFF74D
:100DF00077FF00E0022006B0BDE8F081500B002034
:100E000030B5154B1B78834287B004460D4605D894
:100E1000002212482521134603F036FC00216A46C1
:100E20001823FFF737FFA8B90D4B1B6803EB04131A
:100E300068469D8101F0E2FB014618B92046FFF7A4
:100E4000B5FF07E006AA204602F8015D172101233D
:100E5000FFF746FF07B030BD300B00206E5C00008E
:100E6000500B0020B0F1805F2CBF002001207047A4
:100E700000F17040B0F1E04F2CBF0020012070471E
:100E8000C043C00F70470000034B00F10040984280
:100E90008CBF002001207047FEFFFF7F0B4B70B519
:100EA0001D68C4B2002255F824100B4663B15E6879
:100EB000864206D142B118681060196045F82430A6
:100EC00002E01A461B68F1E7184670BDA00C00202E
:100ED00010B50446FFF7D4FF024620B904485F214D
:100EE000134603F0D1FB2046BDE81040FFF7D6BF04
:100EF0007C5C000008B5074B00F100429A4205D91E
:100F0000002205486A21134603F0BEFBBDE80840F5
:100F1000FFF7C4BFFEFFFF7F7C5C0000044B02793B
:100F20001B6853F82210016043F82200704700BF8D
:100F3000A00C0020094B01791A6852F82130834235
:100F400003D11B6842F8213070471A68824201D0F1
:100F50001346FAE702681A60704700BFA00C002031
:100F600010B50A4C206802F037FA4FF4806002F0A6
:100F7000E9F9206040B1002322680020D0500433FA
:100F8000B3F5806FF8D110BD052010BDA00C002076
:100F900073B516461D46CA18037B9A420C4606DDF9
:100FA00000220C4840F23B21134603F06DFB03681E
:100FB0000DF10301986801AAFFF7F2FE01999DF86F
:100FC00003001431214432462B460191FFF762FEA3
:100FD00002B070BD885C000010B5054803F0F8FB56
:100FE000044618B10021182202F00CFA204610BD68
:100FF000140B002010B5044678B14068FFF740FF9D
:10100000024620B905483821134603F03DFB21462E
:101010000348BDE8104003F0EFBB10BD885C000042
:10102000140B002070B5027D04460E461AB91F4805
:1010300040F23B1113E0013AD2B2027582BB406824
:10104000FFF716FF054618B36068FFF711FFA8B158
:101050006068FFF70DFF024638B91448EE211346C9
:1010600003F012FB01F03EFC18B920690028F9D109
:1010700004E0012816D1AEB1002323612046FFF71A
:101080002FFB2046FFF756FF2046FFF7B3FF07E090
:101090002046FFF74FFF064B1A6822601C6002E0F3
:1010A000002500E00546284670BD00BF885C0000B2
:1010B0000406002013B50446FFF78EFF01A9206047
:1010C00000F02CFB0028F7D1019802B010BD000001
:1010D00010B514231446FFF7DDFD28B92368034833
:1010E000834214BF0920002010BD00BFC08B5F9257
:1010F0002DE9F04106460F4615461C461046194696
:1011000032461423FFF7ECFD50B9737C3BB12846FF
:1011100004F114013A46BDE8F041FFF7E1BD18467D
:10112000BDE8F08130B5054687B040680C46FFF752
:101130009FFE024620B90B489121134603F0A4FA02
:1011400000232360296951B101A801F08FFB38B950
:101150002268BDF81430049913442360F3E708466D
:1011600007B030BD885C000013B503460C4601A8EB
:101170001946FFF7CBFA10B9019B1B6A236002B036
:1011800010BD30B589B002AA04460D4688680DF13D
:101190000701FFF705FE9DF80700029903AAFFF774
:1011A00097FFD0B9059B6360069B25605A1C02D04F
:1011B0001846FFF78DFEA0609DF81D0020730328E0
:1011C00002D8034648B100E0032302999DF80700C6
:1011D000143104F10D02FFF75DFD09B030BD8368E5
:1011E0000BB1586870474FF0FF3070470021FFF790
:1011F00019BF000010B5826888B004462AB91448A7
:1012000040F29F11134603F03FFA14200DF107013D
:1012100002AA00F0A3FAC0B963680E4A03922268DA
:101220000D4952688DF81D0001336360059303A8D2
:101230004FF0FF330492069301F0F0FB03A8064938
:101240009DF80720029BFFF753FF08B010BD00BFB9
:10125000885C0000C08B5F92495D00007FB503464B
:101260000E46684619461546FFF78BFF68B99DF88C
:101270000C40A64298BF06F1FF34684600212A467A
:101280002346FFF785FE00B9285504B070BD000065
:1012900038B58468054624B9104840F2AB2122468F
:1012A00007E06068FFF7DEFD024628B90B484FF4FF
:1012B0002B71134603F0E8F923692A68934202D19F
:1012C000DB68236106E0D968914201D00B46FAE75A
:1012D000D268DA602B680022DA6038BD885C0000D2
:1012E00083682DE9F04104460F4616460BB1FFF71F
:1012F000CFFF23685868FFF7B5FD80B32468204608
:10130000FFF718FE1B4B1A6822601C601D462C68F4
:10131000DFF8608044B36068FFF7A4FD024628B997
:1013200015484FF4BB71134603F0AEF9D8F80030FE
:1013300020691B68C8F8003068B1D0F80C8026B16D
:101340003368834208BFC6F800803946FFF76AFE5B
:1013500068B94046F0E72046FFF74CFED7E7206823
:101360003946FFF75FFE10B90020BDE8F081BDE807
:10137000F08100BF04060020885C00002DE9F047E2
:10138000057B9542A8BF1546032D2C46A8BF032414
:10139000074690460D3022461E46894602F057F811
:1013A00030603068C0B9AC4219DAC4EB050ABAF152
:1013B000810F28BF4FF0800A3846E1B20B4A5346EE
:1013C000FFF7E6FD78B909EB04010848524602F040
:1013D0003EF854443060E4E70020BDE8F0873B7BF2
:1013E000C8EB03033360BDE8F08700BF980B002013
:1013F0002DE9F047057B0B7B9D4228BF1D46032D41
:101400002C46A8BF0324164680460F460D300D31EA
:10141000224602F01CF83060306808BBAC4222DA89
:10142000C4EB0509B9F1810F28BF4FF080095FFABD
:1014300084FA404651460F4A4B46FFF7A9FDB8B91A
:10144000384651460C4A4B46FFF7A2FD80B9094881
:101450004A4600F1800101F0FAFF4C443060DBE7BE
:101460000020BDE8F08798F80C303A7B9B1A336077
:10147000BDE8F087980B0020180C0020F0B5074657
:101480008BB040680C46FFF7EDFC024618B91848CF
:1014900040F281211EE002A82146FFF772FE28BB20
:1014A0003D6906460FE006A82946FFF76AFEE8B93F
:1014B00002A806A901AAFFF79BFFB8B9019B002B60
:1014C0000BDB2E46ED6845B1A542ECD1084840F251
:1014D0008A210022134603F0D7F81EB93B69E36066
:1014E0003C6102E0F368E360F46000200BB0F0BD03
:1014F000885C000070B505468CB040680C46164606
:10150000FFF7B0FC60B1214641B1A94206D007A85F
:10151000FFF737FE00285FD10999F5E7A94258D0B7
:1015200003A82946FFF72DFE002855D1059BA342AD
:101530000DD013B103A8FFF7ABFE0CB9059406E07C
:1015400020460399FFF79AFF0028F7D044E026B120
:10155000304601F074FF044611E0A8689DF8184079
:101560000DF1070102AAFFF71BFC02999DF8070085
:101570001A4A14312346FFF78DFB68BB174E04F15E
:10158000140080B20DF1070102AA00F0E7F818BBC1
:10159000134B07936B680893049B03A801330993CB
:1015A000FFF71DFE31460A9007A88DF82D4001F087
:1015B00035FA07A831469DF80720029BFFF798FDF2
:1015C000044640B99DF807000299FFF7D9FBA860CF
:1015D00001E0042000E020460CB070BD980B002014
:1015E000C08B5F922DE9F3470A9D07460E46984649
:1015F000144622B90DB9002042E02A60FBE7684694
:101600003946FFF783F800283AD1009B01901A6A07
:101610003444944228BF1446A71BA246B946B9F1E8
:10162000000F29D0019B33B900980AF1FF3101AABC
:10163000FFF7E4F820BB0198C369028BB3423CBFBB
:10164000F11A89B2134428BF0021521AA34292B260
:1016500082BFE31AD21892B2C2EB0909083008EB34
:101660000903C2EB0A0A01F057F948B9019B5B680C
:101670005B681B680193D2E7002DBCD02F60484601
:1016800002B0BDE8F0870A460021FFF729BE0A46EE
:101690000121FFF725BE10B50446FFF7ABFD01465B
:1016A00020B92046BDE81040FFF7EDBF10BD000097
:1016B0001FB5094B196851B14B6843B96846FFF72C
:1016C00060FD28B90298003018BF012000E0012019
:1016D00005B05DF804FB00BF740B002010B50C4B87
:1016E0001B78FF2B12D00B4A126802EB03135868C9
:1016F000094B197800238B4206DA02EB0314646865
:10170000844203D80133F6E7002010BD012010BD4C
:10171000B40A0020500B0020300B002038B50D46D5
:101720000C4C18B100202070086038BD0A4A21789E
:101730001278013A914202DB05222A6038BD01F09D
:101740007FFA2378286001332370B0FA80F04009D3
:1017500038BD00BF08060020300B00202DE9F34102
:101760001D4B1E4C93F800E01D4BD4F8008093F8FD
:1017700000C005460E461746002373450FDA634541
:101780000BD0D9B208EB011188684A68121AAA4234
:1017900003D33860337000201BE00133EDE72846A7
:1017A0000DF1070101F058FB024658B99DF80710EA
:1017B000236803EB011398685B681B1AAB4203D3E1
:1017C00038603170104604E00648EA21134602F002
:1017D0005BFF02B0BDE8F081300B0020500B002011
:1017E000B40A0020955C000038B5094D044628680D
:1017F0001CB902F09FFF2C6004E0210102F0A5FF5C
:10180000286018B1034B1C70002038BD052038BD7E
:10181000500B0020300B002030B5144B1978144BBE
:1018200000221C684FF0FF338A4207DA04EB0215EE
:1018300001326D68AB4228BF2B46F5E7A3F13002B9
:1018400082420FD3183B5B08183BB3F5006F094A7F
:1018500028BF4FF4006313801388834204D2054BE2
:10186000188001E0012030BD002030BD300B002089
:10187000500B0020700B002008B50748074900F006
:101880009DF938B10B2805D103480449BDE808404B
:1018900000F032B908BD00BFA15C0000D80A0020EA
:1018A00037B5FFF73FF8314B0093314C314B32489D
:1018B000A1681B680C2202F057FF08B10A2053E010
:1018C0002E4B00932E4B2F4821681B68182202F0E4
:1018D0004BFF0028F2D12C4B00932C4B2C48616815
:1018E0001B680C2202F040FF0028E7D1294B00932F
:1018F000294B2A4821691B68242202F035FF002861
:10190000DCD1274B0093274B274861691B682022B5
:1019100002F02AFF0028D1D1244B0093244B254804
:10192000E1681B68082202F01FFF0028C6D1FFF7FC
:1019300017FB0446B8B9204D286802F0FBFE1F4B88
:101940002C601C701E4B1C601E4B1C601E4BFF222B
:101950001A701E4B4FF080521A601D4B1C601D4BBD
:101960004FF000421A60204603B030BDAD5C00006D
:10197000800B0020340B0020DC0A0020BC5C00003F
:101980003C0B0020140B0020D25C00007C0B0020DC
:10199000540B0020E85C0000B80A0020980A0020E0
:1019A000FE5C0000380B0020F80A0020145D0000E7
:1019B000780B0020BC0A0020500B0020300B0020C8
:1019C000740B0020D80A0020B40A0020A40C0020C8
:1019D000980C00209C0C0020024B1868003018BFA7
:1019E00001207047740B0020F0B5044687B00D4607
:1019F00016461F468CB102A82146FFF7C2FB80B9EC
:101A000002A82946324601ABFFF7B8FC48B9019855
:101A1000002801D13C6004E001DD062001E0E4681B
:101A2000E8E707B0F0BD2DE9F041D0F80080B8F14B
:101A3000020F044602D10420BDE8F0814768056921
:101A40007E1930462F2101F0E5FC40B9B8F1000FB6
:101A5000F1D002232360304601F0F1FC03E00123C2
:101A6000C01B2360401BB0F5807FE4DCE0600130E8
:101A700028442061A6600020BDE8F08100230360B7
:101A800041600361704700000023F7B505460F462B
:101A90000B60164602B1136001932846019CFFF7C4
:101AA000C2FF28BB2B68012B02D0022B10D0F4E719
:101AB000EA681CB9DAB90F4B1B68EDE7002AECD0D5
:101AC0002069A96801ABFFF78FFF0028E5D009E086
:101AD0006CB1EA680AB9019404E02069A96801AB15
:101AE000FFF782FF019B3B6016B1346000E00620E7
:101AF00003B0F0BD740B00207FB50022029001A856
:101B000001920592FFF7C0FF07B05DF804FB7FB5B7
:101B100001A9FFF7F1FF38B902A80199FFF731FBDE
:101B200010B902A8FFF7B7FD07B05DF804FB00008D
:101B300010B58EB000230C460A9001A909A803AA8B
:101B400009930D93FFF7A0FF002833D109900D9062
:101B500002A909A804AA0A94FFF796FF10B1062863
:101B60001CD027E0019B5868FFF77CF9029B0446D4
:101B70005868FFF777F9844201D004201AE005A8DD
:101B80000299FFF7FEFAA8B905A8FFF784FD88B906
:101B9000019804990B9AFFF7ADFC0BE0049A2AB95F
:101BA000054840F21711134602F06EFD099B022B07
:101BB000E3D1EDE70EB010BD225D000030B58BB073
:101BC00003AD00230C460690294605A804AA0593F8
:101BD0000993FFF759FF98B1062814D1059B022BF2
:101BE00011D1049B7BB118469DF8202000950799E0
:101BF0000123FEF729FF30B924B1039B236002E0E3
:101C00000B2000E020460BB030BD70B505460E46F7
:101C1000FFF7E2F9044668B145600021FF20FFF7B5
:101C2000AFF80025A06025752046FFF777F93460EE
:101C3000284670BD052070BD2DE9F0479F4B1D68FB
:101C400090B0064605EB00151823AB60AC68F7B200
:101C50003846214602AA0423FFF71CF8F0B9029B7C
:101C6000974A934207D05A1C00F01E81954A93422E
:101C700009D0012012E00123384621460AAA079321
:101C8000FFF726FA06E00223384621460AAA079300
:101C900000F04AFD10B98DF820700994072800F271
:101CA0000981DFE810F00800FC000701FF000701D0
:101CB00007010701FF00079F012F02D0022F7AD0F2
:101CC000CAE09DF82090DDF824800AA849464246E3
:101CD00000F088FE8246002840F0CC800B98FFF789
:101CE000F7F80446002834D042680B9B9A4204D08F
:101CF00075484FF4D87152467CE0037D7BB102A851
:101D00002146FFF73EFA30B90C9B039A9A4206D35C
:101D10000CBF01200020002840F0AC803DE0FF20F7
:101D20000021A768FFF72CF887420BD002A82146B4
:101D3000FFF727FA002840F09D80049B13B102A80A
:101D4000FFF7A6FA48464146FFF71AF80027A060B9
:101D50000FE0FFF741F90446002800F08B800B9B51
:101D6000436041464846FFF70BF8A0602046FFF766
:101D7000D5F8012323750D98431C0AD0FFF7A8F866
:101D8000019000286CD001982146FFF777FB0028CE
:101D90006CD163680BB94D4B1C606068FFF768F845
:101DA000636808B14A4A00E04A4A11688B4261D32D
:101DB000013313605EE09DF82070DDF824800AA8EE
:101DC0003946424600F0E9FD002853D10B98FFF751
:101DD00091F80446C0B102A8214600F01FFD02465A
:101DE000002847D1029B59680B9B994205D0364881
:101DF0004FF41671134602F047FC0C9B039A9A426B
:101E000038D2204600F06EFD00F05CFC044600284D
:101E100030D00B9B436041463846FEF7B1FFA060CF
:101E20002046FFF77BF82C4A0B9B11680D988B42DC
:101E300024BF01331360294BBDF83C20198891421F
:101E400038BF1A80FFF744F8019098B90D9801A99E
:101E5000FFF7DBFE50BB0DE01B4840F2E72119E025
:101E60000D9801A9FFF7D1FE00288CD017B12046AC
:101E7000FFF7C0F8079B012B05D0022B07D1BDF857
:101E80003C30183308E09DF83930143304E00E4834
:101E900040F237310022ADE7AA681344D5E6AB68BB
:101EA0000133D2E6002005E00720F7E6204600F0E7
:101EB00017FCDFE710B0BDE8F08700BF500B002033
:101EC000C08B5F92B923BA532E5D0000740B0020C3
:101ED000A40C0020980C00209C0C00200A06002076
:101EE000F0B5002499B0544B1B681E591D19002EE3
:101EF00000F09980336870680193FEF7C1FF0028F5
:101F000000F08F807068FEF7ADFF00283ED0377D6F
:101F1000002F3BD13369002B38D0484910A801F07D
:101F200086FA10A801F08BFA10AB03EB000E706874
:101F30003B463946020F02D1072F03D103E0092A9D
:101F400003D800E033B1303200E057320EF8012000
:101F5000012301310137082F4FEA0010EAD1002395
:101F60000EF8013010A80BA9FFF728FE40B10B288E
:101F70000AD105E00B990022FFF7BCFA002858D1DE
:101F800030690028F6D101E0002852D1337D13B921
:101F9000012333752CE0736833B97068FEF768FF6E
:101FA00000283ED037691BE007A83146FFF7E9F863
:101FB000E0B9099B002BF0D11AE0B8680DF10301DC
:101FC00002AAFEF7EDFE9DF80300029910AA00F0A8
:101FD000ABFB48B90BA8394600F048FC20B90E9F6E
:101FE000002FEAD1384601E0012801D0C8B120E035
:101FF000FF200021B768FEF7C3FE874203A805D182
:102000000021102201F0FEF9039603E03146FFF7AC
:10201000B8F870B903A801A9FFF739FB48B92B68D4
:102020000193019E63E70434B4F5806F7FF45BAFE6
:10203000304619B0F0BD00BFA00C00203D5D00008F
:102040002DE9F0438FB08046FFF72AFC002840F0CE
:10205000E380734F08F10405388008F541682B6868
:10206000E3B1454500F0A680287955F8041C08AA7C
:10207000182301F087F8002840F09E8008A800F09F
:10208000A1FA48B19DF83730FF2B40F09C80654B9A
:102090001B78FF2B00F097800C35E0E7614B1A7836
:1020A000FF2A1E463FD102A80DF10A0100F0D6FA20
:1020B0000446A0BB05465C4B1B685C59D4B103AA1F
:1020C000A068D4F800800DF10701FEF769FE9DF8C5
:1020D0000720BDF80A309A420AD16068FEF7D4FEA4
:1020E00028B1204600F0FEFB044608B117E0207539
:1020F0004446E3E70435B5F5806FDCD1BDF8080050
:10210000FFF79AFD044650B99DF80A000121FEF739
:102110004DFE044618B9BDF80A30337003E0062CB2
:1021200008BF012449E0FFF7D9FA0446002844D14A
:10213000FFF7BEFA044600283FD1FFF79DFB044697
:1021400000283AD1384B1B681D593DB36868D5F853
:102150000090FEF795FE0646F0B903A8294600F068
:1021600085FB804618B13148E521324611E0059ED5
:10217000336963B12846596800F030FB38B106284E
:102180000AD048B1294840F21D11424601E03561AC
:1021900002E0134602F078FA4D46D6E70434B4F56F
:1021A000806FCFD1FFF79CFE3888FFF735FB0446E0
:1021B00018B906E0042400E00224FFF771FB204672
:1021C0002AE0284628E01A4B1E78701CC0B2FFF7A0
:1021D0000BFB04460028F0D1164B55F8040C196887
:1021E00032018B1888502A685A602A79DA739DF870
:1021F00035209A739DF837209A819DF83720FF2A61
:1022000004D117229A60074B1E7045E718229A6086
:102210003046FFF711FD3FE70FB0BDE8F08300BF88
:102220000A060020B40A0020A00C00202E5D000049
:10223000300B0020500B00202DE9F04F037A9FB0A7
:1022400093469A078046049140F1B481BBF1000F98
:1022500001D10020B1E10EA8D8F80010FEF756FA1F
:10226000002840F0AA8198F808305B075AD50E9BE9
:102270001B6AC8F8043055E00FA8FEF747FA8246FB
:10228000002840F099810F9C039A236A9A4263D1F7
:1022900012A800F03BFA129B002B58D0AF4AB04B6B
:1022A000A668189313681993CDF868A0591C736831
:1022B0001B9333691160002B47D14FF0FF3318A8EF
:1022C00004991C93ADF8747000F081FB18A8049970
:1022D00011AA13AB00F038FA054600283AD1DDF810
:1022E0004890199BC9F8043013999DF84400FEF7F3
:1022F00047FDC9F808001298FEF710FE129B3361E3
:10230000216A39442162204601392A46FEF776FACD
:10231000049B3B440493D8F80430C7EB0B0B1F44D9
:10232000C8F80470BBF1000F93DD8E4B1B8898E852
:1023300006009B45D4BF1FFA8BF71F469F420392AE
:102340009AD9894840F21F1106E15B68B7E74FF060
:10235000050A31E182462FE1039A109007EB02094A
:10236000994586BFC3EB09030893CDF820A0109BC5
:102370004BB90F9809F1FF3110AAFEF73FFA8246D8
:10238000002840F019811099039BCA699A4238BF0E
:102390009C1A0B8B34BFA4B200241E1B13444B4564
:1023A00018BFC3EB0903B6B218BFF6186F4B1B6812
:1023B0000A93039BA2EB030202EB040306938B68D0
:1023C000059313A8194618BFB6B200F04FFA82461B
:1023D000002840F0F180BDF85C50AC4205D962485D
:1023E00070215246134602F04FF9A319AB42069AE8
:1023F000049B13440793149BDCBF2D1BAD1B03F1FF
:102400000103CCBF0546ADB2149333192B4413A876
:1024100018A9ADF85C3000F0C1F9059B0DF136014B
:10242000986811AAFEF7BCFC119B9DF836A0099391
:1024300018A800F0ADFAADF8480074B112AB0093E3
:10244000099B514603F11802234600F07DFAA0BB18
:1024500004F1180C1FFA8CFC01E04FF0180CBDF8C9
:1024600048000799CDF82CC0324602F027FDDDF870
:102470002CC0ADF84800B4441FFA8CFC85B112ABF7
:102480000093099BCDF824C063441A4651462B465D
:1024900000F05AFA88B9DDF824C0AC441FFA8CFC6D
:1024A000BDF8743018339C4502D02F48462153E0C4
:1024B000BDF84830ADF8763002E0824600287BD186
:1024C000BDF87400183080B20DF1370112AAFFF781
:1024D00045F9824600286FD19DF83700129918AA55
:1024E0001823FEF7FDFB8246002865D184B11199BF
:1024F000129B9DF836009DF8372000941831183350
:10250000FEF718FC8246002856D11834A4B200E029
:10251000182412999DF83700079A21443346FEF794
:10252000DFFB8246002847D13444A4B26DB1119933
:10253000129B9DF836009DF83720009521442344D6
:10254000FEF7F8FB28BB2C44A4B2BDF85C3018336E
:102550009C420DD00448BF21002243E79C0C002080
:10256000B923BA53700B00204A5D0000A80C00206C
:102570009DF837001299FEF703FC059B0A9A9860B4
:102580000F4B1B689A42C6EB090904D0CDF840A056
:1025900006E0824610E0109B5B685B681B68109346
:1025A000069B002B7FF4E3AE0F9A0899136A0B4445
:1025B0001362ADE60C2000E050461FB0BDE8F08F7E
:1025C000A80C00200268094B9A420DD14268084BC2
:1025D0009A4209D18268074B9A4205D1C3680648DE
:1025E0001B1A58425841704700207047E2318AB99F
:1025F0008C42B07F5382E0AC8EFC85B110B50446AE
:10260000FFF7E0FF20B1E07DA0F1FF035842584101
:1026100010BD000038B518220C46054608460021BA
:1026200000F0F0FE074B08480849094A84E80F000B
:102630006B68236100232375AB7B6375AB89E375FE
:1026400038BD00BF8EFC85B1E2318AB98C42B07FC3
:102650005382E0AC42688068101A70472DE9F0435D
:10266000164B1E78164B1B6800221033B24221DA3B
:10267000571CA3F1100C1D463C46B44217DAAE4677
:1026800033F8048CBEF80C90C14505F110050CD14F
:10269000DCF80850DEF808309D4235BF0480028027
:1026A0000A800C800020BDE8F0830134E5E7103398
:1026B0003A46DBE70620BDE8F08300BF300B002080
:1026C000500B002010B5054802F082F8044618B1FE
:1026D00000210C2200F096FE204610BD540B002075
:1026E00010B504464068FEF7CFFB024620B9054806
:1026F0002B21134601F0C8FF21460348BDE81040D6
:1027000002F07AB8575D0000540B002013B5044660
:10271000FFF7D8FF01A92060FFF700F80028F7D1E4
:10272000019802B010BD000010B518231446FEF742
:10273000B1FA28B923680348834214BF0920002056
:1027400010BD00BFB923BA53F7B50446808A1830CC
:102750000F46154680B20DF1030101AA1E46FEF791
:10276000FDFFC8B99DF80300019922461823FEF722
:10277000B7FA88B9A38A33B99DF803302B70019B4F
:102780003360002008E001999DF8030018313A46B3
:10279000FEF7A6FA0028EFD003B0F0BD826808B5B6
:1027A00022B90C48D721134601F06EFF0A4B0B608B
:1027B00003685B684B6043688B605368CB60C36899
:1027C00013B94FF0FF3300E05B680B61038A8B8223
:1027D00008BD00BF575D0000B923BA5310B50C46C1
:1027E00088B008B9062016E04368A34212D080687A
:1027F0000DF1030101AAFEF7D3FA9DF80300019938
:1028000002AAFFF791FF30B90698431CEAD0FEF701
:1028100045FBE6E7002008B010BD000030B50446D7
:1028200089B048680D46FEF72FFB024628B90E48CE
:102830004FF4A471134601F027FFA8680DF10301BE
:1028400001AAFEF7ADFA9DF80300019902AAFFF76D
:102850006BFF38B9049B6360BDF81C302560A06035
:10286000E060238209B030BD575D000030B50546F9
:1028700089B048680C46FEF707FB024628B918489D
:1028800040F27511134601F0FFFEA0680DF103013F
:1028900001AAFEF785FA9DF80300019902AAFFF745
:1028A00043FFD0B9049B6B60BDF81C302C60A8605E
:1028B000E8602B820598FEF70BFBB0FA80F4A86065
:1028C0000698431C4FEA541401D1204605E0FEF758
:1028D00011FBE8600028F8D1012009B030BD00BF2D
:1028E000575D000030B5044687B001A82146FFF7C8
:1028F000BDFF012805460CD8039B23B11A69A242EB
:1029000004BF049A1A612046FEF714FB2046FFF725
:10291000E7FE284607B030BD73B51E4603680C4677
:10292000154698680DF1030101AAFEF739FA0199DD
:102930009DF803001831214432462B460191FEF7E1
:10294000A9F902B070BD00002DE9F04106468846A5
:1029500017461C46ACB1B4F5807F254628BF4FF41E
:10296000807540463946094A2B46FEF793F958B917
:10297000304606492A4602F0A1FA2F440646641B57
:10298000E8E7069B20461E80BDE8F081980B0020FA
:1029900001461422002002F091BAF0B585B0054638
:1029A0000F461646FFF7F4FF04ACAB8A24F8020D7D
:1029B0003946009406F11802FFF7C6FF28B9BDF8A2
:1029C0000E00EB8A181A18BF012005B0F0BD38B50B
:1029D00004460D46FFF7DCFF2946A28A02F06EFA94
:1029E000E08238BD7FB504460E46154621461222C8
:1029F000002002F063FA04AA637C22F8020D31463B
:102A0000009205F11402FFF79FFF28B9BDF80E00F0
:102A1000638A181A18BF012004B070BD38B5044687
:102A20000D4612222146002002F048FA2946627C17
:102A300002F044FA608238BDF0B585B00D46144608
:102A40000DF10B0103AA06460068FEF7A9F90B4B2E
:102A50009DF80B001B68039903EB041322469F6843
:102A600000953B46FEF766F9054620B920463946F3
:102A7000FEF786F93060284605B0F0BD500B002007
:102A8000F0B5044687B00E4617460025B5421AD267
:102A90002CB90E4884212246234601F0F5FD01A8F9
:102AA0002146FFF7E3FE78B9BDF81410183104F1A0
:102AB000080089B23A46FFF7BFFF28B9BDF81430C5
:102AC000049C1D44E2E7002007B0F0BD645D0000F7
:102AD0002DE9F04F95B0814616461D46DDF878B0D9
:102AE000002900F09E800021142204A800F08AFC36
:102AF000304601F013FE8046002800F08B8004A8C9
:102B00000021142200F07EFC4A4B1B6801933746DB
:102B1000CA46002F3BD009A85146FFF7A7FE04463E
:102B2000002878D1BDF83430FF1A099B0DF10B0154
:102B3000986803AAFEF734F903999DF80B00BDF8D5
:102B40003430183108EB07020391FEF7A3F804466E
:102B5000002860D1CA450ED0BBF1000F07D0DBF8CA
:102B60000030534504BFDAF80030CBF8003050464F
:102B7000FFF7B8FE08E009AC0FCC0DF1100EAEE87F
:102B80000F002368CEF80030DDF830A0C1E7049CC8
:102B90002CB92948E7213A463B4601F075FD0EA8BD
:102BA0003946182200F02EFC244B0E9363680F93D5
:102BB000059B01331093069B5B681193BAF1000FDC
:102BC00002D14FF0FF3301E0DAF8043012930EA87F
:102BD0004146ADF84C60FFF7FAFE019B03EB051A86
:102BE0002846DAF808700EAA39461823FEF778F856
:102BF000044680B9284607F1180142463346FEF7DD
:102C00006FF8044638B928463946FEF7B9F8C9F8CE
:102C1000080000E00524404601F08CFD052C05D19C
:102C2000484631462A46FFF72BFF0446204615B09A
:102C3000BDE8F08F500B0020645D0000B923BA534B
:102C40002DE9F04F7D4B7E4F1E787E4B97F800901C
:102C5000D3F8008091B042460490012300240297EB
:102C6000B34212DA4B450DD008EB04155069696880
:102C7000884206D84C4504D0917FA87B091A0906E2
:102C800000D5DCB201331032EAE74C4503D16E487F
:102C9000712100223DE008EB041A48469AF80C1016
:102CA000FEF7AEF8002840F0C5808346674B1B68EE
:102CB00053F80B5008E02F6900252B462E46002FB5
:102CC0003ED1002E7ED1089D002D00F087802B681C
:102CD00068680893FEF7D4F80028F4D0A8680DF1CE
:102CE0001E0109AAFEF75CF89DF81E30A34213D01E
:102CF0006868FEF7BDF80028E5D0029B68681B787D
:102D00000393FEF7B5F802460028D4D14E484FF49D
:102D1000A971134601F0B8FC029B0BA829461E7846
:102D2000FEF72FFA002840F085809DF8381005F155
:102D3000080014313246FFF77FFE0028D8D079E032
:102D40000BA839460593FFF791FD002872D10AAA16
:102D5000B8680DF11F01FEF723F89DF81F20059BB1
:102D6000A2421CD13A49BDF83C2009881A44002EE1
:102D700008BF3E468A4203D8BE4218BF01251EE066
:102D800008AA009230461A462946039BFFF7A0FE88
:102D900000284FD1BDF83C203E4605460FE06EB1FD
:102DA00008AA009230461A462946039BFFF790FE78
:102DB00000283FD105460246064600E01A460E9F0F
:102DC00013467CE708AA009230461A462946039B20
:102DD000FFF77EFE00283FF476AF2BE00BF1040BEB
:102DE000BBF5806F7FF462AF08EB0918DAF80830A2
:102DF000D8F808209A4204D9134840F2FD112A4617
:102E000087E79AF80E3001338AF80E302046012108
:102E1000FDF7CCFF70B9049B1BB1029B049A1B7891
:102E20001370029B1C70FDF7C5FC18B9094A1368A2
:102E30000133136011B0BDE8F08F00BF300B0020EC
:102E4000B40A0020500B0020645D0000A00C00209C
:102E5000700B0020A80C0020F8B507460E46002590
:102E60000B4B1B789D420FDA3046FFF7E9FE044614
:102E700060B9084B30781B6803EB0010FFF7EAFBE2
:102E8000B84203D20135EBE70820F8BD2046F8BD73
:102E9000300B0020500B00200649074A074B9B1AB5
:102EA00003DD043BC858D050FBDC0548804705488B
:102EB00000470000D0610000D8000020DC050020A1
:102EC000DD2E0000D9000000FEE7FEE7FEE7FEE78A
:102ED000FEE7FEE7FEE7FEE7FEE700BF274B1B78B5
:102EE000062B0ED1264B1B6819070AD1254B1B68F0
:102EF00003F0F003302B04D1234B1B6813F0F00FC9
:102F00002AD01E4B1B78062B0ED11D4B1B681A07AF
:102F10000AD11C4B1B6803F0F003302B04D11A4B71
:102F20001B6813F0F00F1DD0144B1B78062B0ED12D
:102F3000134B1B681B070AD1124B1B6803F0F003ED
:102F4000302B04D1104B1B6813F0F0030ED00F4B45
:102F50000F4A1A6000F0B2BD0E4AD36823F08073A6
:102F6000D360CEE70C4B03221A60DDE74FF08042BE
:102F7000C2F80C31C2F81031E9E700BFE00F00F0F1
:102F8000E40F00F0E80F00F0EC0F00F0F00000207C
:102F90000090D003F0ED00E0A0050040024B186067
:102FA000024B1960704700BF0C060020100600207D
:102FB0001C4B2DE9F34115461A680F466AB31A4BAC
:102FC0001B68984229DA0C23584300240C60161819
:102FD000105C02F0F1FA8046D8F80C309C421ADA04
:102FE000D8F800306946DB68204601AA9847009B64
:102FF00071688B420DD3B2680A44934209D22DB155
:1030000032786B60019B2A70AB600C353B680133F2
:103010003B600134E0E7002001E04FF0FF3002B0F8
:10302000BDE8F0810C060020100600202DE9F04FCD
:10303000424B17461A6885B00C46002A79D0404B9F
:103040001B68984275DA0C2358430025D1F800B06C
:103050000D6002EB0008105C02F0AEFA4FF0FF3991
:1030600082464E46DAF80C309D421ADADAF8003021
:1030700002A903AADB6828469847029AD8F80410E8
:103080008A420CD3D8F808300B449A4207D22368FE
:103090000133B6F1FF3F08BF2E462360A946013534
:1030A000E0E723685B454FF00003C8BFD8F808206D
:1030B0002360D8BF9B464FF0010C4FF00005C8BFFE
:1030C000B2FBFBFBB1452DDBDAF80030CDF804C0D4
:1030D000DB6803AA304602A99847DDF804C0039ACA
:1030E0000C23BCF1000F0BD06B43F81898F80010BC
:1030F00001720299F950236842600133236004E0B1
:1031000003FB057359680A445A600C2303FB0573DB
:1031100001365B685B4526BF01354FF0010C4FF06F
:10312000000CCFE723680C2202FB037700207860B5
:1031300001E04FF0FF3005B0BDE8F08F0C06002035
:10314000100600204268914207D38368D01881425C
:103150004FF0FF3098BF002070474FF0FF307047AE
:1031600038B500242546E0B202F026FA40B10368E3
:103170001B699847002818BF4FF0FF350134F2E76C
:10318000284638BD2DE9F0410C4617461D4602F091
:1031900013FA064680B12146FFF7D4FF60B93046E6
:1031A0006119FFF7CFFF38B93368204639462A4600
:1031B0001B68BDE8F04118474FF0FF30BDE8F081D3
:1031C0002DE9F0410C4617461D4602F0F5F906467A
:1031D00080B12146FFF7B6FF60B930466119FFF7AD
:1031E000B1FF38B93368204639462A465B68BDE8E6
:1031F000F04118474FF0FF30BDE8F0812DE9F34171
:103200008846144602F0D8F9074610B94FF0FF354A
:103210002DE04146FFF796FF0028F7D14444384699
:103220002146FFF78FFF05460028EFD14445EDD931
:103230000646FB689E421ADA3B683046DB68694600
:1032400001AA984728B100220B489B21134601F0A0
:103250001BFA9DE809000344984506D2844204D92C
:103260003B689B6898470028D0D10136E1E72846A3
:1032700002B0BDE8F08100BF6E5D0000036883F31B
:1032800008884368184708B502F0A1F90120704783
:1032900070470000C36882681968012910B509D118
:1032A00059685C18844205D160689A60014459608D
:1032B000D36009E0012303600D4B4361196901618B
:1032C0001861036958610346116801290ED15968D4
:1032D000581890420AD150680144596050691169E8
:1032E00001614861D16892688A60D160184610BD5A
:1032F000F4000020172910B504461BD901230360F0
:103300000D4B41601B689847A0B10C4BDB681A68F5
:10331000022A01D0A342F9D29A68A260E3609C60BD
:10332000A3682046DC60FFF7B5FF054BBDE8104001
:103330001B68184710BD00BF10010020F4000020DA
:103340000C010020F8B508B90020F8BD1F4B1F3054
:103350001B6820F00F0498470028F5D01C4B186913
:103360000368022B29D04268A2421ED304F1200335
:103370009A420169456911D303198668121B012716
:1033800007515A60002280E81400D8609E60F36004
:10339000836019615D614B612B6103E00023036071
:1033A00029614D6100F1100402E00069D8E70024B2
:1033B000084B1B6898472046F8BD204602F01AF9D2
:1033C000431CF4D02146FFF795FFC7E7100100200A
:1033D000F40000200C01002010B5044660B1074B3A
:1033E0001B68984740B1A4F11000FFF753FF044B4E
:1033F000BDE810401B68184710BD00BF1001002039
:103400000C01002002440346934202D003F8011B42
:10341000FAE7704710B5024610F8013BCCB2A34260
:1034200003D0002BF7D1184610BD104610BD421E28
:1034300011F8013B02F8013F002BF9D17047034618
:103440001A46013311780029FAD1101A704710B5C5
:103450000244904208D010F8014B11F8013BE31AE6
:1034600003D1002CF5D100E00023184610BD000068
:103470001FB5044641B108466A4608210E2301F0F3
:1034800083FD38B16A4600E00A462146034801F050
:10349000A7FF01E04FF0FF3004B010BD1401002081
:1034A000012837B5144620D10D681149284602F08D
:1034B0006AFA38B90823019314B120460D490BE08C
:1034C0000C4B0EE028460C4902F05DFA68B908235F
:1034D00001932CB10949204601AA01F041FD05E004
:1034E000064B1C605C60204600E00A2003B030BD43
:1034F0007A5D0000140600207F5D00001C0600209D
:10350000064B1968024609B95B682BB1034B03CB24
:103510001060516000207047042070471C06002096
:10352000064B1968024609B95B682BB1034B03CB04
:10353000106051600020704704207047140600207E
:103540000146074B18B918605860064805E0006846
:1035500049681A4603C203481946FFF789BF00BFEE
:103560001C0600207F5D00000146074B18B918605B
:103570005860064805E0006849681A4603C20348D7
:103580001946FFF775BF00BF140600207A5D0000E2
:10359000F8B50E46174605460024BC4215DA06EB80
:1035A000C40316F8340059682A462023FFF7EAFDC1
:1035B00018B92A68054B9A4204D02846FF212022D8
:1035C000FFF720FF01342035E7E7F8BD3CB8F3965C
:1035D000014801F089BC00BF140100201FB504465A
:1035E00001F0E8FE03AB00930948002108222346BE
:1035F00001F0B6FF10B9039B082B06D0204600212E
:103600000822FFF7FFFE002000E0012004B010BDFB
:10361000845D000008B501460822044801F0B6FFA9
:10362000002814BF0220002008BD00BF845D0000F8
:10363000014801F07FBF00BF845D000010B5044663
:1036400021460848082202F059F948B106482146A7
:10365000082202F053F908B9012010BD4FF0FF30E5
:1036600010BD00BFC00C0020E00C002008B5074BC7
:103670000A4619680C2358430B681918185C4968E6
:10368000FFF7BCFD003018BF012008BD300A002044
:10369000194B1B681B682DE9F0410C2505FB003711
:1036A00005FB01359046BB68AA689A4205D2002204
:1036B0001248C721134600F0E7FF0024444518D202
:1036C000C4EB0806B6F5806F796838780C4A28BFD5
:1036D0004FF4806621443346FFF754FD50B96968C2
:1036E0002878074A21443346FFF76AFD10B934446D
:1036F000E4E70020BDE8F081300A0020925D000080
:10370000280600202DE9F74F554F7B6800241B0A3F
:103710000193A2463B689A4580F09E80DFF848B14D
:10372000DFF848C1DBF80030DCF80050D3F804E0E3
:103730009EF801602DB14FF00009DCF800004D4605
:103740001DE05A7A93F8088002EB42018900424555
:1037500006DA18680844013280680C310544F6E73F
:10376000CCF80050E7E71A684FF00C0C0CFB012274
:1037700092682A44824206D809F10109154609EBEC
:103780000401B142EFDB019A94425EDB9EF80080B7
:103790002644A044B04502D13248F92104E0587AC9
:1037A000804505D12F48FA210022134600F06CFF16
:1037B000864202D12B48FB21F6E73B79E3B9294643
:1037C000FFF754FF002843D1DBF800303046597A28
:1037D0002A46FFF75DFF00283AD1214A230243F031
:1037E000010310465360FFF715FF88BB304629469A
:1037F000FFF73CFF60BB02E0012B14D1F6E7404627
:1038000031462A46FFF744FF10BB230243F0020370
:1038100013487B60FFF7FEFED0B940462946FFF70C
:1038200025FFA8B902E0022B0FD1F6E7DBF8003044
:103830004146587A2A46FFF72BFF48B9631C1B0202
:1038400007487B60FFF7E6FE10B9AA444C4461E7E5
:10385000044840F24F11A7E7002003B0BDE8F08F05
:10386000280A0020925D0000300A00202406002073
:10387000F0B5544C89B0206053480E46FFF7AEFEB9
:1038800020BB2268516810680B7803EB43039B0050
:10389000C418C35C8DF81030636805934B781268C8
:1038A0004A4C03EB43039B00D118D35C8DF81830CE
:1038B0004B6807930222204604A9FFF769FE444B98
:1038C00022689A421A4606D0002309E0FFF71AFF41
:1038D0000028D6D071E0A38821891944E3680B44FD
:1038E000216A3A4D9142384906D1AA88288D104460
:1038F000EA6A0244934201D30B6000E00A600023AD
:1039000002A84B60FFF7FCFD074640B902A8FFF78D
:1039100095FE421C05461CD13846FFF711FE02A851
:10392000FFF7FEFD074640B902A8FFF787FE431CDC
:1039300005460ED13846FFF717FE2368013305D13F
:10394000224B1B6A013303D1032437E0002500E03A
:1039500001254FF4807000F0E1FE034658B308AA39
:1039600002EBC5024FF4807012F8101C009052F860
:103970000C2C164F04EB451000F02EF804460028DE
:10398000E2D12DB1012D0FD1FFF7BCFEA8B9203730
:103990009DF810303371059B3760B360FFF748FE28
:1039A0000020FFF7CDFD09E00A4840F2DB11224676
:1039B000234600F069FE062400E00446204609B0D4
:1039C000F0BD00BF300A0020280A0020AC0C002007
:1039D0003CB8F396925D00002DE9F04F9B460369D9
:1039E00092469A07CBB00546894602D44FF0FF3481
:1039F00060E00AA800F082F80AA8002100F082F82E
:103A0000B5F80880EB6800269844464515D2549BCB
:103A1000C6EB08079F4228BF1F46484606EB0A012F
:103A20005A463B46FFF7AEFB002842D10AA859464A
:103A30003A4600F05DFC3E44E7E70AA802A900F020
:103A40005BFC2E89EB68B5F8048000241E44B0446A
:103A50002746464517D206EB0A0B4846594601AAA7
:103A60000423FFF78FFB20BB9DF80430012B05D109
:103A7000BDF80630202BB9D10BF10407BDF8063094
:103A800004331E44E5E72B699B0713D5002FADD007
:103A9000484639460AAA2023FFF774FB48B902A812
:103AA0000AA9202201F02AFF003018BF0120444259
:103AB00000E0044620464BB0BDE8F08F074A084BB3
:103AC0009342114602D1074A9360704700228858FA
:103AD00098500432D82AFAD1F5E700BF0000000060
:103AE0000000002000ED00E0034B10309B6843F81D
:103AF0002010BFF35F8F704700ED00E000216C22C3
:103B0000FFF780BC002303604360A1B9184B8360BA
:103B1000184BC360184B0361184B4361184B83610A
:103B2000184BC361184B036203F17453A3F52303CD
:103B3000A3F6924318E0154B8360154BC36003F165
:103B4000794303F5740303F501630361114B43618A
:103B5000114B836103F1D14303F5C01303F51E63D9
:103B6000C3610E4B03620E4B43628166704700BF18
:103B700067E6096A85AE67BB72F36E3C3AF54FA5FE
:103B80007F520E518C68059BABD9831FD89E05C10F
:103B900007D57C3639590EF7310BC0FFA78FF96472
:103BA000A44FFABE2DE9F04FCFB0031D05931A467E
:103BB000002306AC52F8040F44F823000133082B0D
:103BC000F7D10846002211F82240C37843EA046383
:103BD000447843EA0443847843EA04230EAC043077
:103BE00044F822300132102AEDD107A890E80302F0
:103BF000DDF834800A9D0B9A0C9B069CDFF87CE272
:103C00000DF13C0C5CF8047C5EF8046C4FEAB51ACC
:103C10008AEAF52A8AEA756A3E44564483EA020A29
:103C20000AEA050A8AEA030A5644464440EA0408B6
:103C300000EA040708EA010848EA07084FEAB4075F
:103C400087EA743787EAB457B844B044B144DEF821
:103C50000070DCF8006082EA050A374409EA0A0AC3
:103C60008AEA020A3B4403EB0A074FEAB91383EAE4
:103C7000F92383EA7963FE1848EA040306EB010A94
:103C8000034008EA04010B434FEAB80181EA7831A6
:103C900081EAB8510B443344DCF80410DEF80460C8
:103CA00089EA05070E440AEA07076F403244D6192D
:103CB0004FEABA1282EAFA2282EA7A62B11843EA39
:103CC00008020F18224003EA080002434FEAB3003B
:103CD00080EA733080EAB35002440A44DEF80800F8
:103CE000DCF808108AEA090601443E4086EA090623
:103CF0000D4435444FEAB71686EAF72686EA77661A
:103D0000A91942EA030505EA080502EA03062E435B
:103D10004FEAB20585EA723585EAB25035186E1859
:103D200001EB040BDCF80C00DEF80C1087EA0A0447
:103D300008440BEA040484EA0A04814409EB040001
:103D40004FEABB1989EAFB2989EA7B6900EB090183
:103D500046EA020906EA020009EA030949EA0009FB
:103D60004FEAB60080EA763080EAB6508144894452
:103D70008844DCF81000DEF810108BEA07040844D1
:103D800008EA04044FEAB8117C40824481EAF82131
:103D90000AEB040081EA786100EB010A49EA0601B6
:103DA00009EA0600114001434FEAB90080EA793080
:103DB00080EAB9500144DCF81440DEF814005344A2
:103DC00088EA0B0504441D404FEAB31085EA0B0551
:103DD000274480EAF32051447C1980EA7360271855
:103DE00041EA0900304001EA090420434FEAB104E6
:103DF00084EA713484EAB1542044DCF81850DEF8C7
:103E0000184038443A4483EA0807254417404FEAEB
:103E1000B214AB4487EA080784EAF2240BEB0705E7
:103E200084EA726405EB040B40EA01040BEB06051F
:103E300004EA090400EA010634434FEAB00686EAC0
:103E4000703686EAB05634440B4E0EF1200EB6455D
:103E50005C440CF1200C7FF4D5AE0027A6F1440B96
:103E6000CDF834800A950B920C9306940790089134
:103E700001900EAE049703E0205E0000E05D0000BC
:103E80000DF1380C049F706A5CF82770D6F804E0D6
:103E90000744B06B4FEA704C8CEAF04C8CEA902CE3
:103EA00067444FEAFE1C8CEABE4C8CEADE0C07EB42
:103EB0000C004FEAB51C8CEAF52C8CEA756A83EA93
:103EC000020C0CEA050C8CEA03070AEB070CDBF882
:103ED00040700390674407443064019840EA040C42
:103EE000B8440CEA010700EA040CB06A47EA0C0C7B
:103EF0004FEAB407864487EA7437F06B87EAB45711
:103F000067444FEA704C09EB080A8CEAF04CB8445D
:103F1000B7688CEA902CF4444FEAF71E8EEAB74E4D
:103F2000DBF844008EEAD70EE64482EA050C03442F
:103F30000AEA0C0C73448CEA020C03EB0C094FEAFE
:103F4000BA1383EAFA2383EA7A6309EB030C0CEBD6
:103F500001030293019B0398C6F844E048EA040178
:103F60000B4008EA040119434FEAB80383EA7833A7
:103F700083EAB8530B44F16A39444FEA704763440B
:103F800087EAF047D6F80CC087EA902901EB0907C9
:103F9000DBF848004FEAFC1181EABC4181EADC0110
:103FA0000244029839448AEA050707400A446F40F0
:103FB00002EB07094FEAB01282EAF02282EA70624D
:103FC00009EB0207019AD6F81090B16443EA0800A1
:103FD0003A44019200EA040203EA080010434FEA5F
:103FE000B30282EA733282EAB35202443A444FEA9D
:103FF0007E47306B87EAFE4787EA9E2E4FEAF91725
:10400000604487EAB94787EAD90770443844DBF847
:104010004C70F0643D44029F87EA0A0E019F07EA54
:104020000E0E05448EEA0A0EAE444FEAB71585EA35
:10403000F72585EA77650EEB050742EA030507EBEE
:10404000040C05EA080502EA030425434FEAB2041A
:1040500084EA723484EAB25425443D444FEA714EF6
:10406000776B74698EEAF14EB9448EEA9127B944B0
:104070004FEAF41787EAB44787EAD40109EB01074E
:10408000DBF85010394401EB0A09019937658E4677
:1040900002998EEA010A0CEA0A0A8AEA010E09EB81
:1040A0000E0A4FEABC1989EAFC2989EA7C690AEB05
:1040B000090145EA020905EA020E09EA030949EA8B
:1040C0000E094FEAB50E8EEA753E8EEAB55EF144F2
:1040D00089448844B16BD6F818A00C444FEA70416B
:1040E00081EAF0414FEAFA1E81EA90208EEABA4E48
:1040F0008EEADA0E0444DBF854000299744420443A
:104100004118019874658CEA000E08EA0E0E8EEADA
:10411000000E8E444FEAB81181EAF82181EA7861F5
:104120000EEB010049EA050E0EEA020109EA050E4E
:1041300041EA0E0E4FEAB90181EA793181EAB951BB
:10414000714401440344F06BD6F81CE082444FEA0A
:10415000774080EAF74080EA9727BA444FEAFE1793
:1041600087EABE4787EADE000AEB0007DBF8580063
:10417000B76500EB070A0198504488EA0C0A03EA85
:104180000A0A4FEAB3178AEA0C0A87EAF32750446F
:1041900087EA736741EA090A07440AEA050001EA67
:1041A000090A40EA0A0A4FEAB10080EA713080EA5F
:1041B000B15050443A4438444FEA744A376A019047
:1041C0008AEAF44A03988AEA94244FEAF71A864462
:1041D0008AEAB74AA6448AEAD707DBF85C40019826
:1041E00077443C4483EA080E644402EA0E0E4FEA28
:1041F000B21C8EEA080E8CEAF22C74448CEA726CC3
:10420000A44440EA0104F76504EA090400EA01074E
:104210003C434FEAB00787EA703787EAB057049803
:1042200008303C4430286544644404900BF1200B72
:1042300006F120067FF424AE0C93019B0793CDF882
:1042400034800A950B9206940891CDF824900023AF
:10425000059A52F8041F059206AA52F8232001334A
:104260000A440599082B0A60F2D14FB0BDE8F08FDF
:1042700003682DE9F04103F03F05134493420360C6
:104280003CBF4368013306460F46144638BF4360BF
:1042900095B1C5F1400842450ED305F128004246CC
:1042A000304401F039FB304606F12801FFF77AFC73
:1042B0004744C8EB04040025A046C8EB0401B8F14C
:1042C0003F0F394405D93046FFF76CFCA8F1400890
:1042D000F3E724F03F0114F03F02394406D005F122
:1042E00028003044BDE8F04101F016BBBDE8F08184
:1042F0000AB1FFF7BDBF704737B502680D46416888
:10430000530F43EAC1030446180ED1008DF8000094
:10431000180C02F03F028DF801008DF80330180AE6
:104320000B0E372A8DF804304FEA114394BFC2F1C7
:104330003802C2F178028DF802008DF805308DF850
:1043400007100B0A20462C498DF80630FFF7D0FFE6
:10435000204669460822FFF78BFFE37A2B706389BA
:104360006B70A3681B0AAB70A368EB70E37B2B71C7
:10437000E3896B71E3681B0AAB71E368EB71E37C63
:104380002B72638A6B7223691B0AAB722369EB720F
:10439000E37D2B73E38A6B7363691B0AAB736369F9
:1043A000EB73E37E2B74638B6B74A3691B0AAB7492
:1043B000A369EB74E37F2B75E38B6B75E3691B0AD1
:1043C000AB75E369EB7594F823302B76638C6B76D1
:1043D000236A1B0AAB76236AEB76A36E4BB994F87B
:1043E00027302B77E38C6B77636A1B0AAB77636AA2
:1043F000EB7703B030BD00BF9B5D000070B5104A85
:1044000013680133136000F057F8054600F080FC94
:10441000064600F0CBFB0446304600F0F1F8A0421F
:1044200028BF2046632804D9064B984228BF184667
:1044300000E0002001F020FA284600F043F8DEE713
:104440003C0D0020C02709001FB5FF224FF0FF33AD
:104450008DE80C00064B0293402303930549064A5E
:104460000648002300F0D8FB05B05DF804FB00BF50
:10447000400D0020DC5E0000FD430000EC0C00203D
:1044800008B500F04FF828B1002203486D2113460B
:1044900000F0FAF808BD00BFE15E0000012000F066
:1044A0003DBC000008B500F0B9FA024B4FF0805255
:1044B0005A6008BD00ED00E0EFF3108072B600F026
:1044C0000100704700B962B67047EFF3108000F04A
:1044D0000100704770B5A1F1200306460C46A1F11A
:1044E0004005A1F10C02002143F8041F9342FAD1C8
:1044F000284600F056FC4FF0807344F8043C736982
:1045000044F8083CB36944F8203C284670BD0000DC
:10451000034A536943F010035361FFF795BF00BF8F
:1045200000ED00E038B5EFF30583002B3CD103F13B
:10453000604202F561420133FF21F02B82F8001343
:10454000F5D16FF00C001949FFF7CEFA6FF00B00B0
:104550001649FFF7C9FA6FF00A001449FFF7C4FAC9
:104560006FF009001149FFF7BFFA002460B20F494C
:104570000134FFF7B9FA262CF8D10D4CE02501F0F3
:1045800029F884F822502025E57700F0FFFBEFF3AF
:10459000148414F0010402D1FFF7BAFF02E0DFF83F
:1045A00014C000DF002038BD072038BD254E0000B4
:1045B00000ED00E01145000038B500F0A9FB05460C
:1045C000FFF77AFF0D4A14687CB12369EB1A002BC0
:1045D0000ADB6369A1690BB1996100E05160A269CE
:1045E00013600023A36100E00024FFF76BFF24B1F8
:1045F000E068214600F01EF8E2E738BD2C010020FB
:1046000010B50446FFF761FF024620B90748BA21FA
:10461000134600F039F8064B1B6823B11869001BDC
:1046200020EAE07010BD4FF0FF3010BDE65E0000E4
:104630002C010020F8B50D460646FFF73DFF2B780C
:1046400007461BB1BDE8F840FFF73CBF01242C70C2
:10465000B268AB60156030680835B56048B1827BE0
:10466000022A02D100F04AFA00E01C46002333601F
:1046700000E004463846FFF725FF24B10020BDE8DE
:10468000F84000F0E9B9F8BD38B504460D46FFF72B
:1046900013FF034B1D60034B1C6001F017F900BFB3
:1046A000480E0020440E002008B5044B5A685A6892
:1046B000DA6A9A6A9A6B5B6B01F008F900ED00E028
:1046C00008B5084B1B685BB107484FF0FF3100F09D
:1046D0000FF928B10022054822211346FFF7D4FF25
:1046E00008BD00BF400E0020380A0020F35E000025
:1046F00008B5074B1B684BB1064800F0B1F828B16C
:10470000002205482D211346FFF7BEFF08BD00BF5C
:10471000400E0020380A0020F35E000010B5044669
:10472000FFF7CEFF2046FEF70DFE0446FFF7E0FF41
:10473000204610BD10B50446FFF7C2FF2046FEF725
:104740004BFEBDE81040FFF7D3BF38B505460C4619
:10475000FFF7B6FF2146284601F0E9F80446FFF7C7
:10476000C7FF204638BD000070B550B34BB30029D9
:1047700027DD002A25DD9C0725D112F003041ABF8E
:10478000C4F10404A41814460260049A8261816092
:104790004160C36043611D460A46012A04D02E19B8
:1047A0002E60013A3546F8E70139614300225A503C
:1047B000064902614B68186000F110034B60104617
:1047C00070BD032070BD042070BD00BF3401002007
:1047D00038B5044668B1FFF76FFEA3682BB1656971
:1047E000013B2A686261A36000E01D46FFF76AFE94
:1047F00000E00546284638BD70B50E46054610B3A4
:1048000009B30468C0686B6814F0030216BFC2F1F4
:10481000040222461219814215D303FB0203994276
:1048200011D2081AB0FBF2F302FB13045CB9FFF7D4
:1048300043FE6B693360AB686E610133AB60FFF7B9
:1048400041FE204670BD032070BD30B1002343718E
:10485000C3808360036018467047032070470000E0
:10486000F8B5214B1B680446002B36D0002836D003
:1048700000F0ECF8E388002B33D0A568854230D1F6
:10488000013B9BB2E38033BBFFF716FE63796A7B83
:104890009A42074603D06B73284600F0ABF92668AE
:1048A0006EB1F26922B9114868211346FFF7ECFE98
:1048B000304600F023F90123E380737B6371A66027
:1048C00000F092F904463846FFF7FCFDAC4202D0F6
:1048D000204600F0C1F80020F8BD0920F8BD0320F3
:1048E000F8BD0520F8BD00BF400E0020FD5E0000B1
:1048F000364B1B682DE9F04106468846002B5ED0FA
:1049000000285FD0FFF7D8FD074600F09FF8F58834
:1049100004462DB9B060437B73710123F38004E03A
:10492000B368834207D1681CF0803846FFF7CAFDA0
:104930000020BDE8F081B8F1000F05D13846FFF73F
:10494000C1FD0620BDE8F081427B597B914203D92D
:104950005A73B06800F04EF9326882B1657B134635
:104960000021587BA84204D8D86C194618B10346D8
:10497000F7E70B4619B1DA6CE264DC6401E0E2644B
:104980003460E37BE66143F00403E3734146204671
:1049900000F07AF83846FFF795FD002000F05CF84B
:1049A000FFF78AFDE37B23F00403E373FFF78AFD3F
:1049B000B068A04214BF06200020BDE8F0810920A5
:1049C000BDE8F0810320BDE8F08100BF400E00206B
:1049D00038B5837B012B04460AD1FFF76DFD0E4AE3
:1049E000136893B1657B597B8D4203D35B6CF8E709
:1049F000022038BD9A6CA2649A6C636414604434DB
:104A00009C64FFF75FFD002038BD63645368A364B6
:104A10001C6044345460F4E73C010020084B1A68E1
:104A2000824210B50BD0C36B06490133C363064BFA
:104A30000C681868936B086003441B1B936310BDDC
:104A40004C0E0020500E0020580E0020014B18681C
:104A5000704700BF4C0E002038B50446FFF72CFD10
:104A600005460CB9064B1C68064B1B689C4202D0DD
:104A70002046FFF717FD2846BDE83840FFF722BD66
:104A80003C0100204C0E002038B5436C826C04467B
:104A90000D460BB19A6401E016494A60A26C13609E
:104AA0000223A37300F034F9284401356063124AED
:104AB00005D1E37B43F00103E37300230AE01368AD
:104AC00043B1D97BC9070CD4596B091A002908DCFA
:104AD0005B6CF5E763645368A3641C604434546002
:104AE00006E09A6CA2649A6C6364146044349C641B
:104AF000002038BD3C0100204401002008B5837B24
:104B0000022B03D01848CE21002205E0C369ABB1C7
:104B10001A6822B91448D3211346FFF7B5FD824223
:104B200002D1C26C1A6006E0D36C834201D01A46EF
:104B3000FAE7C36CD3640023C364C36101238373A6
:104B400000234363C37B826C23F00103C373436C74
:104B50000BB19A6401E005494A60826C1360FFF76B
:104B600037FF002008BD00BF085F0000440100209F
:104B700070B500F0CDF80546FFF79EFC0A4B0446E1
:104B8000186858B1C37BDB0708D4436B466CEB1A3B
:104B9000002B03DBFFF7B2FF3046F2E72046BDE80B
:104BA0007040FFF78FBC00BF4401002010B50446E1
:104BB000FFF78BFC024628B9094840F2171113464B
:104BC000FFF762FD074B1B683BB1DA7BD20704D4C9
:104BD000586B001B20EAE07010BD4FF0FF3010BD95
:104BE000085F000044010020014B1868704700BFB7
:104BF0003C010020837B012B0AD1436C826C0BB1FA
:104C00009A6401E003494A60826C1360FFF7E0BEDA
:104C1000704700BF3C0100202DE9F04704461F46C5
:104C20008946924600215022DDF824800A9DBDF875
:104C30002C60FEF7E7FBA761C4F814A0FFF73CFC6B
:104C40001F4B1F787A1C1A70FFF73CFC9DF8203030
:104C5000637301232773A37304F120070023C4F8AF
:104C600010906363384600F011F938BBB8F1FF3F8C
:104C700001D1002306E0C4F82480384600F00EF984
:104C8000E0B9F6E7B34204DA0E4A45F823200133CF
:104C9000F8E705EB8605324620462946FFF71AFC61
:104CA00000232364084B26815A6884E8210014609D
:104CB000204604F140025A60FFF78AFEBDE8F08703
:104CC000540E0020EFBEADDE4C01002070B5D1E9DE
:104CD00000454FF47A76B0FBF6F3E41806FB1303B5
:104CE000886806FB0300094B906045F10005984277
:104CF000C2E9004509DD013445F10005A0F5742045
:104D0000C2E90045A0F51070906070BD3F420F00F1
:104D1000014B1868704700BF580E0020F8B5041EFC
:104D200005DA0022164857211346FFF7ADFC26D0BE
:104D3000144EFFF7C1FB33680746E01890EA030FF3
:104D4000306010D5104D294651F8084B041B0A4617
:104D50002046FFF7BBFF05F1180120460A46FFF782
:104D6000B5FF33682B603846FFF7ACFBFFF724FC38
:104D7000FFF7FEFE0020BDE8F840FFF76DBEF8BD6E
:104D8000135F0000580E0020480A0020684680F398
:104D900009882C480078023080F31488BFF36F8FA5
:104DA000704780E8F00F7047EFF30980816911F8D0
:104DB000021C51B990E80F1010B5E047BDE8104053
:104DC000EFF3098C8CE80700704710B51E4A126893
:104DD000914209D81D4C54F8214090E80F10A0478B
:104DE000EFF3098C8CE80F00BDE810407047184BBA
:104DF0001A68184B1968914208BF7047EFF3098C85
:104E00002CE9F00FC1F800C01A60D2F800C0BCE86D
:104E1000F00F8CF30988704710B5FFF73FFBBDE832
:104E2000104070471EF0040F0CBFEFF30883EFF340
:104E300009832DE9F84F6846FFF736FCBDE8F84FC7
:104E400070470000340A002000000000FCFFFFFF54
:104E50003C0100204C0E002008B5044B186820B11E
:104E600003484FF0FF31FFF743FD08BD400E00201F
:104E7000600E002008B5034B186810B10248FFF718
:104E8000EFFC08BD400E0020600E002008B5002198
:104E90001422FEF7B7FA002008BD000010B5044642
:104EA000FFF7DAFF38B9044B1A6822611C60BDE8CD
:104EB0001040FFF7DFBF10BD780A002030B50B4669
:104EC0005C1A94420ADA13F8014B054D84EA102467
:104ED00035F8144084EA002080B2F1E730BD00BF0D
:104EE0001E5F000000207047024B1A6802601860C5
:104EF000002070477C0A002038B5064B1C68054628
:104F000034B12846616800F03EFD08B12468F7E737
:104F1000204638BD7C0A002073B50D461646094967
:104F200001AA00F03AFD002440B146F824000549EA
:104F3000002001AA00F031FD0134F5E72C6002B039
:104F400070BD00BF485D000010B51446FFF7E4FFD8
:104F500020B92068BDE81040FFF7CEBF002010BD8B
:104F600070B5144606460D4600F0F0FD23689842E1
:104F700001DD032070BD3046294600F091FD002878
:104F8000F7DB2060002070BD38B5CD1C9D42144673
:104F900004DA012300F036FD204638BD002038BD7C
:104FA00010B58AB00C4602AA01A9FFF7CDFF30B1B7
:104FB000C368019803A922460138984700E00320FE
:104FC0000AB010BD30B504468BB040B101A902AAA9
:104FD000FFF7BAFF80B1006978B180470DE0084B58
:104FE0001D683DB12B691BB19847002C08BF0446D2
:104FF0002D68F6E7204600E003200BB030BD00BF6F
:105000007C0A00202DE9F0410746084616468846EE
:10501000FEF715FA04463046FEF711FA23181F2B47
:10502000C8BFC0F11F040546224641463C443846ED
:1050300000F072FC204631462A4600F06DFC002349
:105040006355BDE8F081000010B50446A0B0C0680B
:1050500000F054FA0023E3606846A1680E4AFFF7A7
:10506000D1FF10A8A1680D4AFFF7CCFFA0686946E0
:1050700000F066FA18B1062801D002200AE0A16803
:1050800010A800F05DFA04460028F6D1684600F04A
:1050900051FA204620B010BD2261000027610000B7
:1050A000F0B5DDB00F46164604AC009305464FF44C
:1050B000B07120463A46334600F006F9B0F5AF7FAE
:1050C0001BD80A232354EB68461C0BB1039305E05D
:1050D000A868062103AA00F00BFA80B921460398BC
:1050E000324600F01BFAEB68002814BF02240024AB
:1050F0003BB9039800F002FA03E0032002E002202B
:1051000000E020465DB0F0BD0AB1FFF7C9BF032043
:105110007047000010B5C36888B004462BB1002268
:105120000A48AA211346FFF7AFFA6846A168084A61
:10513000FFF768FF68460A2104F10C0200F0D8F975
:10514000002814BF0220002008B010BD2C61000010
:1051500027610000826808B52AB1044A426000F065
:105160000FF9002008BD032008BD00BF5401002036
:10517000826810B53AB10024044AC460426000F06D
:1051800013F9204610BD032010BD00BF54010020BC
:10519000F7B50C461968074616461D4600F0C4F9D7
:1051A000002804DA00232B604FF0FF3023E038465C
:1051B0003146224601AB00F0A7F90028F2DB019B43
:1051C000002BEFD0B34204BF03F1FF330193019BE7
:1051D00000260A21E6542046FEF71CF9014608B1D4
:1051E000067003E02046FEF715F901462B68081B00
:1051F000013303442B6003B0F0BD70B5DCB00D4645
:105200001646806801216A4600F072F9E0B9019003
:10521000009804A94FF4B07201ABFFF7B9FF019CED
:105220006CB10028F4DB04A802A903AA00F00FF86F
:105230000028EDD1029803993246A847E8E7009884
:1052400000F05CF9204600E002205CB070BD70B553
:1052500000241460054610F8013B73B3032CF9D801
:10526000DFE804F0020D141F202BF3D0A3F1090690
:10527000012EEFD90D2BEDD00D600124EAE73D2B77
:105280000FD1002300F8013C0224E3E7202BE1D0FA
:10529000A3F10906012EDDD90D2BDBD01560032407
:1052A000D8E7202B05D0A3F10905012D01D90D2B3D
:1052B000D0D1002300F8013CCCE7A01E01284FF01C
:1052C000FF3098BF002070BD2DE9F84FD2F804A040
:1052D0000A9F0546504699468B46FEF7B0F8804631
:1052E0004846FEF7ACF8064627B13846FEF7A7F861
:1052F000044600E03C4608EB0603234401335B45CB
:1053000020DA51464246284600F006FB08F1010A21
:105310002F2305F808304946324605EB0A0056446B
:1053200000F0FAFA06F101083D23AB5505EB080041
:105330003946224600F0F0FA08EB040000232B5413
:10534000BDE8F88F4FF0FF30BDE8F88FFFF728BEBB
:1053500038B50D461168144600F015FB70B9616848
:1053600015B911B9012301E011B90023A36038BDBB
:10537000284600F008FB0028F7D1F3E738BD00000D
:10538000084A10B514680023214611B10B4609687C
:10539000FBE713B90460106010BD1A680260186062
:1053A00010BD00BF800A0020014B1860704700BF8D
:1053B000BC0F0020084B10B51C683CB1636807495E
:1053C0001B682046002298472468F6E72046BDE87F
:1053D0001040FFF7F7BD00BF800A00204D530000CA
:1053E0002DE9F04F264B1D6895B081460F4690463B
:1053F000002D3DD0D0F804B05846FEF720F8044602
:105400003846FEF71CF823180133402B064631D8E6
:105410000DF1100A59462246504600F07DFA14ABB1
:1054200004F1010B1C4432462F2339460AEB0B00D2
:1054300004F8403C00F070FA14AB1E445E440024B3
:1054400006F8404C6B68CDF804A01B68CDF80880C6
:10545000039428460B4901AA9847039B012B0BD0C4
:105460006B6828469C6849463A464346A04704E094
:105470000A2002E0032000E0204615B0BDE8F08FCE
:10548000BC0F002051530000034B1A780AB90122C7
:105490001A700020704700BF840A0020044B81E886
:1054A00005005A680020C86011600C3159607047CF
:1054B00064010020002070470220704702207047DE
:1054C000022070470346064A5A60064A9A60064A16
:1054D000DA600020054A18601A615861704700BF01
:1054E000B9540000B5540000BD540000C154000080
:1054F000014B1B681B681847880A0020014B1B687A
:105500005B681847880A002010B5034C2468A4681B
:10551000A446BDE810406047880A0020014B1B6884
:10552000DB681847880A0020014B1B681B69184775
:10553000880A0020014B1B68DB691847880A002095
:10554000014B1B681B6A1847880A0020034A13682E
:1055500013B91060184670470B207047880A002066
:1055600073B51646012101AA1D46FFF7C1FF044687
:1055700030B90198069B31462A46FFF7C5FF04461D
:105580000198FFF7BBFF204602B070BD73B50E4611
:1055900015460A2101AAFFF7ABFF044628B9019876
:1055A00031462A46FFF7BAFF04460198FFF7A6FFE7
:1055B000204602B070BD00000028024818BF00203D
:1055C000704700BF3C6100004FF0FF30704708B5E6
:1055D00000F07CF908B5002000F00CF80020FFF77F
:1055E000F3FF03480521BDE80840FDF7D7BC00BF25
:1055F0006C0100200D4A08B5031E106807DA0C493B
:1056000003448B4208D200F0B7FA162309E0094997
:10561000091A994202DB0344136008BD00F0ACFA9A
:105620000C2303604FF0FF3008BD00BFA80100202D
:10563000C00F002050FE0020064B074AD2F800247D
:10564000012A04D0013BF8D14FF0FF307047002011
:10565000704700BFA086010000E0014070B506461B
:10566000FFF7EAFF00BBEFF3108572B6104CD4F8D9
:10567000043543F00203C4F80435FFF7DDFF40B9F9
:10568000C4F80865FFF7D8FF003018BF012040427A
:1056900001E04FF0FF30D4F8043523F00203C4F8E2
:1056A00004351DB962B670BD4FF0FF3070BD00BF4C
:1056B00000E00140002070472DE9F34704460E4604
:1056C0001546FFF7B9FF002853D1EFF3108872B6E3
:1056D0002A4AD2F8043514F0030A43F00103C2F851
:1056E000043526D0FFF7A8FF10B14FF0FF3034E0AB
:1056F00024F0030902A8CAF10407D9F8003040F8E1
:10570000043DAF4228BF2F46314650443A4600F090
:1057100003F9019BC9F800303C44ED1B3E4408E00E
:10572000FFF78AFF0028E0D156F8043B44F8043B19
:10573000043D032DF4D86DB102A8236840F8043D60
:1057400031462A4600F0E8F8FFF776FF0028CCD172
:10575000019B2360FFF770FF0020084AD2F8043550
:1057600023F00103C2F80435B8F1000F03D162B68B
:1057700001E04FF0FF3002B0BDE8F08700E00140EB
:1057800008B503460846194600F0C6F8002008BDD3
:105790007F2808B505DD00220548AF211346FEF736
:1057A00073FF00034FF4805308601360002008BDAE
:1057B0006E5D0000002208B502482B211346FEF75B
:1057C00063FF00BF6461000038B50446FEF77DFE4C
:1057D000024670B90C4839211346FEF755FF0123E4
:1057E0006B64D5F844351B1B002B0BDB074B1B6888
:1057F0001C44074DC5F84045FEF767FE0028EED172
:10580000FFF7D8FF38BD00BF64610000940A002094
:10581000009000402DE9F041FEF74EFE0746FEF7EE
:1058200054FE08B9FFF7C6FF104E114DDFF8448053
:10583000012373642C68D6F844351B1BD8F800404C
:10584000B3FBF4F42046FFF769FA0023C6F84031B1
:10585000D8F800002B6800FB043420442C60FFF7CC
:10586000B3FF3846BDE8F041FEF72CBE0090004083
:105870008C0A0020940A002010B50446FEF725FE8D
:10588000024620B90D4865211346FEF7FDFE64B1BE
:105890000B4B1B689C4228BF1C460A4B18680A4BDE
:1058A0001B6800FB0430FFF78FFFBFF34F8F30BF43
:1058B0001CB1BDE81040FFF7ADBF10BD6461000032
:1058C000900A0020940A00208C0A0020084B1B68D4
:1058D000DB0700D500BEBFF34F8F0649064BCA68F1
:1058E00002F4E0621343CB60BFF34F8FFEE700BFCB
:1058F000F0ED00E000ED00E00400FA0510B5024410
:10590000904206D010F8013B11F8014B1B1BF7D059
:1059100000E00023184610BD10B5431E0A44914212
:1059200004D011F8014B03F8014FF8E710BDF8B5AA
:105930000C46054620B90846BDE8F840FDF702BD13
:1059400019B9FDF749FD2046F8BD01F11F0250F8D5
:105950000C6C22F00F04A64202D3B4EB960F11D2C6
:105960002046FDF7EFFC074638B1A6F11002A2422F
:10597000294628BF2246FFF7CFFF2846FDF72CFD1A
:105980003846F8BDF8BD10F8012B11F8013BD31AC9
:1059900001D1002AF7D11846704738B50D46144694
:1059A00000B110602046294600F005F810B10378D8
:1059B000002BF7D038BD38B5046805463CB1204609
:1059C00000F007F810B10023037001302860204672
:1059D00038BD70B5037893B10C46034610F8015BEF
:1059E0003DB10A46144612F8016B002EF5D0B542BF
:1059F000F8D12278002A14BF1846002070BD18463E
:105A000070BD0000F8B5002416461546074622462C
:105A10008A4232DA02F1010E845C8E45B8BF97F8F3
:105A200001E04FEA0424B8BF744402F1020E8E452F
:105A3000B8BF97F802E04FEA0424B8BF7444C4F337
:105A4000854CDFF858E01EF80CC085F800C0C4F3A0
:105A5000053C03321EF80CC085F801C0C4F3851C58
:105A600004F03F041EF80CC01EF80440EC7085F8EA
:105A700002C02C4603370435CAE75CB1521A002A2B
:105A800008DDC2F1040023B120443D21FDF7BAFC3A
:105A900000E0251800232B70A81BF8BD72610000E0
:105AA0002DE9F0410E46C51C0C4615F8031CEF1EEF
:105AB00011B9A01BBDE8F0813D293DD13846FDF765
:105AC000BEFC032823D900202F1F034617F801CF5F
:105AD000BCF13D0F4FEA831301D1013010E0B0B9A2
